:020000040800F2
:10000000C0170024DD0F000851570008C90F000871
:10001000C90F0008C90F0008C90F00080000000040
:10002000000000000000000000000000A110000817
:10003000C90F0008000000003D10000869320008E8
:100040005D1200085D1200085D1200085D120008D4
:100050005D1200085D1200085D1200085D120008C4
:100060005D1200085D1200085D1200085D120008B4
:100070005D1200085D1200085D1200085D120008A4
:1002980053B94AB9002908BF00281CBF4FF0FF31E5
:1002A8004FF0FF3000F00CB8ADF1080C6DE904CE4A
:1002B80000F012F8DDF804E0DDE9022304B070472D
:1002C800704700BF10F8012B11F8013B012A28BF25
:1002D8009A42F7D0D01A70472DE9F04786468C46E7
:1002E8000846089E154674461946002B40F0C28001
:1002F8008542B2FA82F245D94AB1C2F1200300FA26
:1003080002FC2EFA03F3954043EA0C0C94404FEAA2
:10031800154EA8B2BCFBFEF8230C0EFB18CC08FB4C
:1003280000F943EA0C43994528D9EB1808F1FF373F
:1003380004D2994502D9A8F102072B44A3EB09037B
:10034800A4B2B3FBFEFC0EFB1C330CFB00F044EA2A
:100358000344A04214D92C190CF1FF3304D2A04253
:1003680002D9ACF102032C44241A43EA07401EB117
:10037800D440002334607360BDE8F0874746DDE76A
:100388006346F1E792BB431B01214FEA154EAFB21A
:10039800B3FBFEFC200C0EFB1C330CFB07F840EAF9
:1003A8000343984562D9EB180CF1FF3004D2984505
:1003B80002D9ACF102002B44A3EB0803A4B2B3FBAF
:1003C800FEFC0EFB1C330CFB07F744EA0344A74270
:1003D8004ED92C190CF1FF3304D2A74202D9ACF143
:1003E80002032C44E41B43EA0040C0E7C2F12003A7
:1003F80020FA03F1954090402EFA03F303434FEAA5
:10040800154EAFB2B1FBFEFC0EFB1C10190C0CFB19
:1004180007F841EA0041884504FA02F422D969182C
:100428000CF1FF3004D2884502D9ACF1020029440E
:10043800A1EB08019BB2B1FBFEFC0EFB1C110CFBEF
:1004480007F743EA01439F420ED9EB180CF1FF313D
:1004580004D29F4202D9ACF102012B44DB1B41EAD2
:10046800004192E76046E3E76146F7E76046A3E7A5
:100478006346B7E7834206D916B9002108467BE7E9
:10048800C6E900E0F9E7B3FA83F78FB9834201D3ED
:10049800724508D8BEEB020460EB030301209C46BA
:1004A8001EB9002168E73846FAE7C6E9004CF8E7C4
:1004B800C7F1200CBB4022FA0CF41C432EFA0CF1B5
:1004C80020FA0CF3B84001434FEA14490EFA07F535
:1004D800B3FBF9F81FFA84FE09FB18300B0C08FB74
:1004E8000EFA43EA00439A4502FA07F240D9E318A4
:1004F80008F1FF3004D29A4502D9A8F1020023443A
:10050800A3EB0A0389B2B3FBF9F809FB183308FB1C
:100518000EFE41EA03418E452CD9611808F1FF33DC
:1005280004D28E4502D9A8F10203214443EA0040CF
:10053800A0FB0298A1EB0E014145CE46434602D3EB
:1005480006D14D4504D2B9EB020E68EB040301381D
:10055800002EA6D0B5EB0E0261EB030101FA0CFCEC
:1005680022FA07F34CEA0303F940C6E9003198E799
:100578004046C5E74346D9E710B5094C206805F061
:100588002FFD28B9074805F0AAF84FF0FF3010BD35
:1005980023680548196805F0A2F80020F7E700BFAE
:1005A80000000024B46D0008CA6D00081FB545F6A8
:1005B800A5230222CDF804D0ADF800300F4B0292EB
:1005C80018680F4B8DF80C201B789DF80C2081685B
:1005D80042F002028DF80C2001228C6801A9A04784
:1005E800044628B9074805F07AF8204604B010BD3B
:1005F8000146054805F073F8F7E700BF000000243E
:1006080068000024E06D0008F66D00081FB5134B64
:100618000222CDF804D0186802920322104B8DF8FC
:100628000C201B789DF80C20816842F002028DF89E
:100638000C2001228C6801A9A047044648B99DF8FE
:1006480001209DF80010074805F049F8204604B03D
:1006580010BD0146044805F042F8F7E70000002401
:10066800680000240C6E0008306E00087FB50E4646
:100678001D460446A0B90AAB0B48039305F0ACF835
:10068800089B01462A460948009605F028F8039970
:10069800099800F021F9064805F021F801F050F812
:1006A800204604B070BD00BF456E0008686E0008A3
:1006B8005085000807B5FFF7A9FF074BB0FA80F08F
:1006C800064A0193064B4009064900931223FFF797
:1006D800CDFF03B05DF804FBB06E0008456E00085E
:1006E800A16F0008906E000807B5FFF75FFF074B82
:1006F800B0FA80F0064A0193064B40090649009378
:100708000D23FFF7B3FF03B05DF804FBEC6E0008A0
:10071800456E0008BD6F0008CB6E000807B5FFF7EF
:100728002BFF094B00F1010C084A0193084BDCF13F
:100738000000084900934FF0170340EB0C00FFF747
:1007480095FF03B05DF804FB296F0008456E0008AB
:10075800826F0008086F000807B5FFF70DFF074B09
:10076800B0FA80F0064A0193064B40090649009307
:100778000823FFF77BFF03B05DF804FB696F0008EF
:10078800456E0008DA6F0008496F0008B2F5802F3F
:100798002DE9F04110D2042A28D843494FF40773B1
:1007A800424A434804F0B1FF424804F0AEFF4FF418
:1007B80007713E4804F0A0FF0823D21ACC1D11444B
:1007C80024F0070421F00701091B17294FEAD10675
:1007D8000ED8394940F22523344A354804F095FFAC
:1007E800344804F092FF40F22521E2E70423E4E7CD
:1007F8000027046031463046A660E76004F01FFF1A
:10080800421D804601219200304604F00EFFD51D9E
:10081800ED082844B0423AD8B8F1FF3FA2F11002DF
:10082800394604F11000B8BF3A46A6EB050805F0B2
:1008380072FC2A463946204604F0F3FE3B463A4607
:100848003946204604F0C4FE20463946012204F009
:10085800D0FE4246294604F0E4FE2B463A46294695
:10086800204604F0B5FE3146204604F0DAFE434641
:100878003A463146204604F0ABFE31462046012276
:1008880004F0B7FE2946BDE8F04104F0E4BE0B4988
:1008980040F23A23054A064804F037FF054804F0B9
:1008A80034FF40F23A2184E7377100084C700008A1
:1008B8008070000858710008717100089A7100086A
:1008C800014B1B68184700BF04000024014B186047
:1008D800704700BF0400002430B585B004460D46BB
:1008E80010220021684605F016FC02232A462146FC
:1008F8008DF802306846034B019304F001FC05B003
:1009080030BD00BFC908000880B505460E46174629
:10091800984603F0DFFEDFF82090034605F076FCEA
:100928000446424649F8003039463046A84754F84C
:10093800090000F069FB00BF08000000054B00201B
:100948005A6842F002025A605A6842F001025A603C
:10095800704700BF0010005C164B82B0D3F8E0204F
:1009680042F00072C3F8E020D3F8E02002F00072F1
:100978000192019AD3F8F42042F00202C3F8F4205D
:10098800D3F8F42002F002020092009A0A4AD2F840
:100998000423D20706D503F50053D3F8903000207E
:1009A80002B07047D3F8A02042F00802C3F8A02094
:1009B800F5E700BF00440258000400580C4B0D4AEC
:1009C8001A600D4AD36823F03F0343F00403D36051
:1009D8000A4B1A6841F20303B3EB124F06D1084AD7
:1009E800D2F8083143F00103C2F80831704700BF5C
:1009F800380000240090D003004802580010005C22
:100A080000800051014B0360012070471C6B0008F7
:100A180037B505460C46C9B18B6814480093D1E92F
:100A28000023452104F07FFE6369452110480093A7
:100A3800D4E9032304F077FEE26945210D4804F068
:100A480072FEA26945210C4804F06DFE012D06D105
:100A5800EFF305824521103A084804F064FE214668
:100A6800284603B0BDE8304002F020BE13720008EB
:100A7800477200087B7200088F720008C272000873
:100A880030BFFFF7FDBF00BF2DE9F0410B4E054613
:100A9800DFF82C80324606EB0807CC1B09492046B4
:100AA80005F02BFBA019083C4246002105F033FB5A
:100AB80007F10800C5F89040BDE8F081000000008B
:100AC80004000000D86A0008054B5A699B689A42DE
:100AD80004D0044A536843F080535360704700BF02
:100AE8007C05002400ED00E02DE9F8433F4D8046E9
:100AF80089463F484521174604F015FEAB6ADA06D9
:100B080026D5112445213B4804F00DFEAB6A1B078E
:100B180004D512244521384804F005FE334DAB6A4C
:100B28009E0717D54521354804F0FDFD6E6BAB6A6D
:100B38001C0645D532464521314804F0F4FDB9F18B
:100B4800000F03D0AB6A23F08003AB62132403E0E9
:100B58001024DBE76FF01506244DAB6AD80704D5DF
:100B680014244521274804F0DEFDAB6A990604D514
:100B780015244521244804F0D6FD1C4DAB6ADA063D
:100B880002D4AB6A9B070AD56B68180507D541469E
:100B9800304600F015FBB0B180F309880224134BEE
:100BA8009A6A920603D55A6A22F400525A629A6ADD
:100BB800204642F0FF029A6200233B70BDE8F883AA
:100BC8006FF01506C2E7AB6AD906E8D50F494FF4AE
:100BD80092730F4A0F4804F098FD0F4804F095FDF2
:100BE8004FF492710A4804F087FD00BF00ED00E061
:100BF800DA720008F57200082D73000845730008C2
:100C0800627300087D730008A17300080774000868
:100C1800D5730008807000085174000810B5204C86
:100C28004521204804F07FFDA36A990136D51E4866
:100C3800452104F078FD1E20A36ADA0104D51B487B
:100C4800452104F070FD1F20154CA36A1B0304D531
:100C58001748452104F067FD2120A36A590304D5EC
:100C68001448452104F05FFD22200D4CA36A9A0325
:100C780004D51148452104F056FD2320A36ADB035F
:100C880004D50E48452104F04EFD2420044A936AF9
:100C98006FEA03436FEA1343936210BD1D20CBE74D
:100CA80000ED00E07474000891740008A97400084D
:100CB800C8740008EB74000815750008347500083E
:100CC80070B5284C06460D462748452104F02BFDF3
:100CD800A36AD9043BD52548452104F024FD1720F3
:100CE800A36A1A0504D52248452104F01CFD1820E2
:100CF8001C4CA36A9B0511D51E48452104F013FD21
:100D0800A26BA36A180408D545211B4804F00BFD03
:100D18001EB1A36A23F40043A3621920114CA36AED
:100D2800590504D51548452104F0FDFC1A20A36A8D
:100D3800DA050ED51248452104F0F5FC1B20094AB6
:100D4800936A43F47F43936200232B7070BD16208F
:100D5800C6E7A36A9B04F2D50A48452104F0E3FCE0
:100D68001C20ECE700ED00E0647500087F750008C2
:100D78002D73000895750008B3750008CD75000837
:100D8800ED750008A1730008754BF0B50446586866
:100D98008BB00025C0F3080385F31188BFF36F8F6C
:100DA80002F07F46B6F17F4F07D102F00C06082EFD
:100DB80012D145216B4804F0B6FC6B4940F211434F
:100DC8006A4A6B4804F0A1FC6A4804F09EFC40F2B1
:100DD8001141664804F090FC16074CBF0C460125EB
:100DE800002CEAD00026DA1E8DF80760092A00F2E6
:100DF800A580DFE802F005989C7BA3A3A3A3A3A08A
:100E080045215D4804F08FFC8DF80760544EF36A65
:100E18009A0705D54521594804F085FC002329E0A7
:100E2800F36A002B02DA45215548F5E7F36A5B00BF
:100E38006CD54521534804F076FC7369A26943F4E4
:100E480080737361BFF34F8FBFF36F8F736932F88D
:100E5800022C23F480737361BFF34F8FBFF36F8F3E
:100E68004DF602739A4228D122684521464804F07B
:100E78005AFC23689DF80720EAB902AE04F120075E
:100E88002068083454F8041C3246BC4203C2164693
:100E9800F6D1099A002D5ED0C2F3080121B96FEA94
:100EA80052226FEA42220992102B02A934BF184637
:100EB8000020FFF7ADFD0BB0F0BDB36ADBB23BB16C
:100EC8000DF1070201212046FFF70EFE0346D1E788
:100ED800B36A13F47F4F05D00DF107010120FFF726
:100EE800EFFEF3E7B36AB3F5803F02D3FFF796FE50
:100EF800ECE7264940F2EA231C4A1D4804F005FCA9
:100F0800234804F002FC40F2EA2162E71F4940F25C
:100F1800ED23164A164804F0F8FB1E4804F0F5FBCA
:100F280040F2ED2155E70DF107020021CBE70DF165
:100F380007010020D3E7452117486DE710F4F87F33
:100F48001649174AA3F1100308BF0A461548452158
:100F580004F0E9FB62E722F4FF7222F00102A2E743
:100F680000ED00E03876000868760008D5730008C0
:100F7800807000087B760008B9760008D5760008EE
:100F8800FB7600080E77000832770008F384000823
:100F98005377000877770008A77700080A760008D3
:100FA8001F760008D0770008044B5A6942F01002F7
:100FB8005A615A6922F008025A61704700ED00E050
:100FC800EFF30880EFF3098101B57246FFF7DCFE05
:100FD80001BD00BF0A4880F30888102080F31188FB
:100FE80008484FF40461401880F30988EFF314802F
:100FF8000221084380F31488BFF36F8F00F0ACF828
:10100800C0170024000A0024084B9B6883420BD1B8
:10101800EFF3058343B1064B5A6842F080525A6099
:101028005A6A22F400425A6203F05ABB7C05002433
:1010380000ED00E015498A684FF030001044EFF3E6
:10104800098C80E8F01F102080F31288BFF36F8F9F
:101058000F4F4FF000664A698A603E60D2F89000F0
:101068000C4C2060D2F894000023C2F8943080F32E
:10107800118804B5104600F00BF9BDE8044002F1F0
:10108800300090E8F01F8CF3098870477C05002435
:1010980004ED00E09C0300241EF0040F0CBFEFF3E6
:1010A8000880EFF30980816911F8021C0229FFD03A
:1010B80001B5724604F044FB01BD00BF00B2002830
:1010C80007DB0123410900F01F00024A834042F870
:1010D8002130704700E100E038B54B1C04460D464E
:1010E8000F2B0FD96B23104A1049114804F00DFB40
:1010F800294610480F23224604F007FB6B210A48B3
:1011080004F0FAFA00B21B010028DBB206DB00F19A
:10111800604000F5614080F8003338BD00F00F00F2
:10112800054A1354F9E700BFE87700081F7800085C
:10113800807000083A78000814ED00E0044B054A76
:1011480023F07F039360BFF34F8FBFF36F8F704718
:101158000000000800ED00E008B5FFF7EFFF0B4ABC
:10116800D2F8883023F47003C2F88830EFF3148380
:1011780023F0040383F31488BFF36F8F02F08EFB10
:1011880003F07AFD00F05AF802F0DAFB00ED00E017
:1011980042F8203C203A009B08495360019B21F00B
:1011A80001019360029B9161D3604FF08073D3611A
:1011B80000230265C0F89430704700BF1109000889
:1011C8000A4A0346906878B113F1160FD0F88000E8
:1011D80005D0A0F140029A4205D8834203D2814249
:1011E80028BF002070470020704700BF7C050024FE
:1011F80015460B4A0E4608B50A4B9060D0F8902069
:101208001A6000F045F82C4686F309880020064B42
:1012180098472046002100220023044C204700BFA5
:101228007C0500249C030024675700081109000866
:10123800014B10221A61704700ED00E000230448BA
:101248001021C2180133962B82F80013F9D1704788
:1012580000E100E008B5EFF30583064A103B02EB16
:10126800C30152F8330049688847BDE80840FFF7D2
:101278002BBC00BFF8640008024B0121024A034856
:1012880000F086B800000824000000242C6B000839
:10129800D0F880204021054B403A18461A60044A8D
:1012A800C3E90112012100F099B800BFA00300248E
:1012B80000000B15104A08B5D2F89030C3F3072385
:1012C800013B984207D9024645210C4804F02BFA05
:1012D8006FF0150008BDC2F898000B6823F01F03D3
:1012E800034343F01003C2F89C308B6843F00103BA
:1012F800C2F8A030EEE700BF00ED00E07E780008FD
:10130800F0B50F4685B01C4605460026BE420CDAED
:10131800686808B38CB1431E184209D0324645218B
:101328000F4804F000FA6FF01502104605B0F0BD42
:101338001F28F3D929680B42F0D12B6801A9019322
:1013480004F021FAAB680343D0B20393FFF7B2FF6E
:1013580010F1160FE7D0421C01360C35D6E700BF56
:10136800A9780008044B0522C3F89420BFF34F8FD7
:10137800BFF36F8F704700BF00ED00E0BFF35F8FD2
:10138800024B0022C3F89420704700BF00ED00E034
:1013980038B50D4D01230C462A78FFF7B1FF2870A8
:1013A80016300FD14FF4BB73084A0949094804F0B5
:1013B800ACF92146084804F0A8F94FF4BB7103487A
:1013C80004F09AF938BD00BFB4050024D1780008AC
:1013D800F38400088070000800790008144A00238C
:1013E80010B512780C46FFF78BFF10F1160F08D0D6
:1013F800104A0021D2F89030C3F30723984210DB3B
:1014080010BD40F295130C4A0C490D4804F07DF9C3
:1014180021460C4804F079F940F29511064804F089
:101428006BF9C2F898000130C2F8A010E2E700BFDB
:10143800B405002400ED00E0D1780008F38400082A
:10144800807000082C7900082DE9F04F714C85B0A8
:101458007149D4F890300D68C3F307239D4213D91E
:1014680040F2AD136D4A6E496E4804F04EF9D4F857
:10147800902029466C48C2F3072204F046F940F24E
:10148800AD11664804F038F9FFF778FF4968002283
:10149800954201F10C011DD1644C6846644F2570DA
:1014A800FFF7B0FA00250646DFF88881DFF8889153
:1014B800AE4222D1237800205649D1F89020C2F3B9
:1014C80007229342C0F29F800020FFF74BFF05B030
:1014D800BDE8F08FC4F8982051F80C3C23F01F03A6
:1014E8001343013243F01003C4F89C3051F8043C14
:1014F80043F00103C4F8A030CAE7009A290102EBBF
:101508000513D3F80CA00AEA0700B0F5000F60D065
:101518000AD8B0F5001F38D0B0F5800F4ED0B0F51E
:10152800801F12D00135C3E7B0F1807F5CD0B0F1E5
:10153800007FF7D1D3F804A05258986804F023F933
:1015480040F48020CDE901A20BE0986804F01BF973
:1015580040F08850D3F804A0525840F43020CDE928
:1015680001A2039001A92078FFF7A4FE002846DA1B
:101578002B4940F2D713294A2A4804F0C6F82F48C5
:1015880004F0C3F840F2D7117BE7986804F0FBF841
:10159800D3F804B0525840EA08001AF0010F03903B
:1015A800CDE901B2DED026497B231C4A1D4804F050
:1015B800ACF8244804F0A9F87B2162E7D3F804A02A
:1015C8005258986804F0DFF840EA0900CDE901A212
:1015D800C7E7D3F804A05258986804F0D4F840F04C
:1015E8008270CDE901A2BCE7D3F804A052589868EC
:1015F80004F0C9F840F08870CDE901A2B1E723787A
:10160800013323708EE7C1F898300133C1F8A00088
:1016180053E700BF00ED00E0D86A0008D178000861
:10162800F38400088070000859790008B405002484
:101638000000F0FF0000081100000206E27900082F
:101648008D790008B379000808B5024B1B689847E4
:10165800002008BDAC030024034B044A18609378AB
:1016680043F0020393707047AC0300240800002481
:101678000649074821F00701C1F1105208B502F5E3
:101688000022FFF783F8002008BD00BF07180024D8
:10169800B003002470B50546074C084EB44202D387
:1016A8000024204670BD21682846FEF70BFE00285E
:1016B800F7D01C34F2E700BF246A0008406A00082B
:1016C8002DE9F84307460D461446DFF8408000230D
:1016D8000F4EDFF8409088F800304E450ED3BB68B7
:1016E8000BB12046984702220B4B20461A70AB6874
:1016F8009847012388F80030BDE8F883336813B1B0
:101708002146284698470836E7E700BFB605002473
:10171800906A0008906A00086900002408B5064825
:10172800FFF772FC04F096FC28B9044B04F06EFD38
:101738001858FFF769FC08BD900000240800000055
:1017480008B50E4B1B7873B15A1E012A0FD9052B09
:101758000B4896BF0B4A0C4952F8231003F0BFFF01
:101768000A4B022201E00A4B05221A7008BD084BF9
:1017780002221A70BDE80840FFF7D0BF69000024B4
:10178800167A0008386B00080C7A0008B7050024A0
:10179800B605002470B5054639B101F11404084EA8
:1017A800B44204D30024204670BD064CF7E72168F4
:1017B8002846FEF787FD0028F5D01434F0E700BF6F
:1017C800906A0008406A00082DE9F04F8BB0154672
:1017D8000746099140B9994B02224FF0FF381A7019
:1017E80040460BB0BDE8F08F01680024944803F030
:1017F80076FF944803F073FF934B1C70DFF84CA2FC
:101808008AF80040924B1C709AF80030052B03D0E0
:101818007C680CB1A04704464FF00009002D18BFA2
:101828002C46C8464E46099B9945C0F2EA8039685D
:10183800B8F1000F40F0FF80864803F050FF844B5A
:1018480004221A703B69002BCAD020469847C7E784
:10185800814B284671689B689847002800F0CD8026
:1018680032697E48136801331360716803F037FFEB
:101878000123774A137001F027FE794B18604FF067
:10188800FF324FF0FF33774900977748CDE90623B9
:101898004FF0FF330822CDE90164CDE90332734BE1
:1018A8004FF4806202F07EFA716811B16E4802F05E
:1018B800E7F99AF80030043B012B09D96A4802F08D
:1018C800B1FE4FF0FF324FF0FF33674803F02CF8BA
:1018D8000323DFF87CB18BF80030FB680BB120469E
:1018E8009847634D634A06E06B681BB12146304652
:1018F8009847604A08359542F6D301F0E5FD584B04
:101908001B68C01A5C4B984247D800F5EA205B4B2D
:1019180000F2FF20B0FBF3F0594B186033691A69E5
:10192800824238BF18619AF800500523022D8BF8BF
:101938000030544B04D0052D02D01A78002A37D035
:10194800002201251A704848FFF75EFBDFF838B11E
:10195800736808934D4B9B4531D3494B4FF47A71CB
:101968004B481A68B2FBF1F301FB13224949009274
:1019780051F82510089A03F0B2FE324803F0AFFE82
:10198800022D336935D1304A127812B12B4A012120
:1019980011705A6801325A602FE03F4B374AC0181D
:1019A8004FF000032CBF01210021FEF771FCB3E7C3
:1019B800033D012D8CBF002501256D00C3E7089963
:1019C800DBF80400FEF77EFC60B93168DBF8000044
:1019D800FEF778FC30B99BF8083033B1012BBCD145
:1019E800023D03E00BF10C0BB4E7013D18BF0125E4
:1019F800B3E7D5B9DA680132DA60104B1B78022BED
:101A080010D03D6831462846FFF7C4FE0646002838
:101A18007FF41EAF094B1A7822B9B8F1000F01D034
:101A280001221A7009F10109FDE69A6808F1010816
:101A380001329A60E1E71948FFE600BFB7050024C4
:101A4800497A00085F7A0008B5050024B605002425
:101A580069000024CD7A0008606B0008A47A0008A9
:101A6800C0030024C005002490000024C916000803
:101A7800906A0008906A000800ADF8FF005307005C
:101A8800BC030024B8050024246A0008246A00085E
:101A9800B07A0008506B0008FF520700E57A00088A
:101AA8002DE9F74FDFF878909046019399F80030C8
:101AB8000090022B31D01B4C0026DFF86CB01B4B7A
:101AC8009C4203D3304603B0BDE8F08F0027A569D8
:101AD800BA46B84506DC99F800305644022BF1D0D6
:101AE8001C34ECE7DBF8042021460098904780B1CD
:101AF8000022019920460AF1010AFFF765FE2A68CB
:101B080001322A60AA68002818BF0132AA6001378A
:101B1800DFE76A6801326A60F9E70026D2E700BFAA
:101B2800B7050024246A0008606B0008406A0008B2
:101B38002DE9F843224C0127224EDFF88C80B4426D
:101B480012D3224C224EDFF88C90B44216D317B928
:101B5800214B01221A701D4C4FF001081F4D1E4FDA
:101B6800B4421AD3BDE8F883A3691D6825B92F4686
:101B78002168404603F0B3FD1C34E0E7D4F8008048
:101B88004046FFF787FD054628B92F46424661685B
:101B9800484603F0A4FD1434D7E72269D2E902319C
:101BA8000B44516812680B44934206D02846D4E986
:101BB800001203F094FD87F800801434D0E700BFCA
:101BC800246A0008406A0008FB7A0008406A000896
:101BD800906A0008207B0008B7050024627B000893
:101BE80010B4024C2468A44610BC6047606B00081F
:101BF8002DE9F04F5E4E8BB0DFF878A103F0D8FDE9
:101C08005D4803F06CFD5D4B9E4212D35C4803F0C7
:101C180066FD5C4B5C481B78002B00F0A58003F048
:101C28005EFD5A495A4803F05AFD00200BB0BDE842
:101C3800F08F002533682C46A8462F46AB46A946A8
:101C4800214618460993FFF7A5FD099B044600287D
:101C580042D1B84553D04F49A8EB07024E486FF020
:101C6800090E01FB09F1BBF1000F91FBF2F14FF4F2
:101C78007A72D4BF4FF0000C4FF0010C91FBF2F2D6
:101C880000FB02110A2091FBF0F00EFB0011042961
:101C980000DD01304FF47A7E009303463F48B5FBE0
:101CA800FEF10EFB1155CDE90378CDE905153C4F42
:101CB8003C4DDFF8F4805AF82C10CDE9019B03F075
:101CC8000EFD21463068FFF765FD0446D8B9374850
:101CD8001C3603F004FD96E7226908F10108116932
:101CE8000D44D2E90001814201D10137A8E7D26849
:101CF80090420CBF09F101090BF1010BA0E74FF06D
:101D0800020C0246C6E7D4F810E04FF47A79DEF800
:101D18001000DEF80010B0FBF9FC09FB1C00DEF82F
:101D280004908945D4E9002311D0DEF80CE0714510
:101D380016D0BEF1000F15D00191A1EB0E01CDE92F
:101D480002C000914046394603F0C9FCB9E70221B8
:101D58005AF82110CDE900C0284603F0C0FCB0E7CE
:101D68000021F5E70121F3E703F0B9FC104959E731
:101D7800246A0008506B0008777B0008406A000856
:101D8800817C0008B70500245F7A0008A77C00085A
:101D9800AE7C0008A086010018FCFFFFA07B0008AD
:101DA800047C0008557C00080A7C0008508500085F
:101DB800C47C00082DE9F041054600244FF00108D5
:101DC8004FF0B0460E4F2A781319DBB208FA03F029
:101DD800D6F8883030EA03030AD152FA84F3C6F8F9
:101DE800880057F833201AB107EBC30359689047A6
:101DF80001346A78E3B29A42E5D2BDE8F08100BFC7
:101E0800C4030024044B03EB40000023013320F8F3
:101E1800022B9942FADC7047480000244FF48013E3
:101E2800094A0A4910B5D2F8A40088420BD0581CB8
:101E3800F9D0013BF7D183F31188BFF36F8F0424E6
:101E4800204602DFEFE710BD00640258000300805F
:101E580007B5062201210020FFF7D4FF0022062043
:101E68001146FFF739F9012107220846FFF7CAFF93
:101E7800002207201146FFF72FF90822012102202E
:101E8800FFF7C0FF002208201146FFF725F90922B5
:101E980001210320FFF7B6FF002209201146FFF7B2
:101EA8001BF90A2201210420FFF7ACFF00220A20B7
:101EB8001146FFF711F9052117220846FFF7A2FF7F
:101EC800002217201146FFF707F9282206210A20C9
:101ED800FFF798FF002228201146FFF7FDF802239C
:101EE800F4220748CDE9002383681B6823B16946BB
:101EF800984703B05DF804FB6FF05700F9E700BF9F
:101F0800D862000808B5034630B1B0FA80F2C2F1D1
:101F18001F02D2B20F2A0BD9124940F20713124AF4
:101F2800124803F0F2FB40F207110F4803F0E4FBFC
:101F38000F4931F91200FF2809D10E4940F20B135D
:101F4800094A0A4803F0E1FB40F20B11EDE74FF0B4
:101F5800B042D2F880100B43C2F88030BDE8084088
:101F6800FFF7ACB84B7D0008097D000880700008B9
:101F780048000024597D000838B50D460446FFF78F
:101F88004DFF4FF0B043032D22D8DFE805F0020FD4
:101F9800121A1A6822EA04021A605A6822EA04022B
:101FA8005A60114B4FF440725A6238BD1A68224386
:101FB800F2E75A6822435A601A6822EA04021A6051
:101FC800EFE71A6822431A605A6814435C60E8E72E
:101FD800064940F237130648064A03F096FB40F2DA
:101FE8003711044803F088FB00640258F3840008A2
:101FF80080700008097D000830B5B0B1B0FA80F3F0
:10200800C3F11F03DBB20B4850F833408C4204D1B4
:1020180000EBC3056D68954205D044B940F833100C
:1020280000EBC3004260002030BDFF23EBE76FF0F8
:102038000F00F9E7C403002460B1B0FA80F3C3F1DC
:102048001F03DBB2044A002142F8331002EBC3023B
:1020580051607047FF23F5E7C403002438B500F04A
:1020680003030F250C4604339B009D4045EA900569
:10207800FFF7D4FE05F003032A0C92FAA2F29B00A4
:10208800B2FA82F203F1B04302F01F02D3F8081447
:1020980094404FF4407221EA15410C43C3F80844B8
:1020A800014B5A6238BD00BF0064025800F00302B9
:1020B8000F23043292009340094A43EA900000F04B
:1020C8000303023352F82320030C93FAA3F3B3FA61
:1020D80083F302EA104003F01F03D840704700BFA3
:1020E80000040058044B05489B6A03F00303022BC5
:1020F80018BF0020704700BF0044025800127A0041
:1021080008B5094B1B6903F03803102B08D0182BAE
:1021180008D1FFF7E7FF782358434008400808BD77
:102128000248FBE70020F9E70044025800127A0051
:102138002F4B10B518680B88C3F30B030A2B25D84F
:1021480013B96FF0850020E0013B092BF9D801A0F5
:1021580050F823F0C121000885210008C721000894
:10216800E7210008CD2100084B2100084B21000879
:10217800D1210008DB210008D121000800201060CF
:102188000B68B3F5805F2CD2002010BDD42B0FD084
:1021980003F62873C3F30B031C2BD2D8012404FACB
:1021A80003F3144C234205D140F211142342C8D042
:1021B8004008E4E78008E2E7FFF7A2FFDFE74FF413
:1021C800FA40DCE70C48DAE7FFF78CFF782358433E
:1021D800EEE7FFF787FF78235843C008CFE70748A3
:1021E800CDE7C3F313330133B0FBF3F01060CBE753
:1021F8003800002400101111006CDC0200127A0073
:102208004FF48013094A0A4910B5D2F88C00884265
:102218000BD0581CF9D0013BF7D183F31188BFF3D9
:102228006F8F0424204602DFEFE710BD00640258D8
:102238000003008010B50B880C4603F62C73C3F31B
:102248000B03202B13D8FFF7DBFF238861680020DE
:10225800C3F30B0303F1B04303F511331A6822EA01
:1022680001021A604FF44072024BDA6010BD6FF041
:102278008500FBE70064025813B50B880C4603F68B
:102288002C73C3F30B03202B1DD8FFF7B9FF23884A
:1022980061680020C3F30B0303F1B04303F5113366
:1022A8001A680A431A604FF440722388C3F30B0379
:1022B80003F1B04303F511331B680193019B034BF2
:1022C800DA6002B010BD6FF08500FAE700640258CA
:1022D80013B5774CD4F8E03043F00073C4F8E0301D
:1022E800D4F8E03003F000730193019BFFF788FFF7
:1022F800236843F480232360236843F480332360F6
:1023080023689B03FCD5636F43F001036367684B45
:102318005A6F9007FCD51A6842F480521A601A68FE
:102328009104FCD51A6902F03802182A17D11A68E4
:10233800520707D41A6842F001021A605C4A13680F
:102348005C07FCD55A4B1A6922F007021A611A6910
:1023580012F0380FFBD19A6922F00F029A61544BA0
:102368001A6822F080721A601A6822F080621A6075
:102378001A6822F080521A609A6A22F0030242F028
:1023880002029A629A6A22F47C7242F010029A62FD
:10239800DA6A22F00C0242F00802DA62DA6A22F003
:1023A8000202DA621A6B22F4FF7222F0010242F092
:1023B80077021A63DA6A22F00102DA621A6B22F4EF
:1023C8007E4242F400721A63DA6A42F48032DA62B8
:1023D8001A6B22F4FE0242F4E0221A63DA6A42F42B
:1023E8000032DA621A6B22F0FE4242F080721A63FF
:1023F800DA6A42F48022DA621A6842F080721A605D
:102408001A689001FCD52B4B9A6942F440429A61B4
:102418009A699104FCD5FFF773FE04462648844266
:1024280001D201F09BF8224B9A6922F470629A61FA
:102438009A6922F00F0242F008029A61DA6922F0E2
:10244800700242F04002DA61DA6922F4E06242F492
:102458008062DA619A6922F0700242F040029A6161
:102468001A6A22F0700242F040021A621A6922F0D7
:10247800070242F003021A611A6902F03802182AA8
:10248800FAD10D48844201D301F068F8094B9A69E2
:1024980042F440429A619A699204FCD5074B4FF482
:1024A80040720020DA60064B064A1A6002B010BD7E
:1024B8000044025800480258001C4E0E006402589E
:1024C8003800002400389C1C10B508880C46C0F35E
:1024D8000B0003F08EF9002826DB4B68FF2B22D077
:1024E800FFF78EFE626893B2C2F38450C2F30542CE
:1024F80003F1B04300FA02F203F51133196821EA37
:1025080002021A6061688BB2CA0EC1F3054103F179
:10251800B0438A4003F51133186802431A604FF438
:102528004072024BDA60002010BD00BF0064025800
:1025380008B5074803F054FD38B10648FFF78CF892
:102548000448FEF7C3F9002008BD6FF01200FBE74E
:10255800B8640008612500080A2838B50446074D04
:1025680004D1AB680D2128465B689847AB68E1B297
:1025780002485B689847204638BD00BFB864000829
:1025880010B5036961B920493F23204A204803F068
:10259800BCF8204803F0B9F83F211C4803F0ACF818
:1025A800486850B91C494023184A194803F0ADF847
:1025B8001A4803F0AAF84021EFE79868F8B1884272
:1025C80019D1DC680868A142986000D1D860002061
:1025D80008602AB19A680A60DA68996002B9D96015
:1025E800002010E0814206D108682060D868814246
:1025F800EDD1DC60EBE7044600680028F2D1002A40
:10260800E8D16FF0150010BDDD7D0008A17D000840
:1026180080700008E67D0008F57D0008077E000848
:102628002DE9F843D0F804801746D0F810900D46ED
:10263800D8F808001E4603F0D0F8B7F5001F044686
:1026480016D1D8F808402846FFF730FD84420CD14F
:10265800294603F0C2F8044603F0C2F82046FFF703
:10266800EBFC00212046FFF787FC0020BDE8F8833B
:10267800B7F5800F20D0B6F1806F19D0B6F1C06FD2
:1026880018D0B6F1007F1AD102264A460F492046D3
:10269800FFF7B2FCB0B9D8F808102846FFF7DEFCFF
:1026A80020463146FFF768FC2046FFF72BFCDCE7A5
:1026B8000126EAE70326E8E76FF08500D6E76FF022
:1026C8001500D3E76FF00F00D0E700BF1928000806
:1026D8004FF48013094A0A4910B5D2F8A00088427D
:1026E8000BD0581CF9D0013BF7D183F31188BFF305
:1026F8006F8F0424204602DFEFE710BD0064025804
:102708000003008038B543680C465D68FFF7E0FFBA
:102718004FF4407200206B6963406B61014B1A6291
:1027280038BD00BF0064025870B543680D461446B2
:102738005E68FFF7CDFF4FF44072002073695C407C
:102748002C405C40014B74611A6270BD00640258F1
:102758002DE9F843164645680124884602F03007FB
:1027680099468C40FFF7B4FF6A68C6F38013C6F336
:10277800C111C6F3412622EA040203FA08F3202F06
:1027880043EA020304FA08F26B6002EB4200D5F850
:1027980008C002FB01F102FB06F66FEA00032CEA0F
:1027A800000C41EA0C01A960E96821EA000146EA47
:1027B8000106EE600FD1B8F1070F18D802FA08F138
:1027C800286A01FA08F1C1EB011401FB09F120EABA
:1027D80004000143296229683F090B4057434FF41D
:1027E80040721F43094B2F601A62BDE8F883240A20
:1027F800696A64436443C4EB041004FB09F921EAE1
:10280800000141EA09016962E5E700BF0064025876
:1028180070B5D1E90161054609B10C6801B970BD0F
:102828008A682A4010D04B6863B90B4964230B4A65
:102838000B4802F06AFF0B4802F067FF6421074863
:1028480002F05AFF304698471CB1236821461C46BF
:10285800E4E72346FAE700BF1E7E0008A17D0008D2
:1028680080700008077E000838B503690446586080
:102878000A4D284603F0B4FB60B1AB6861681B6879
:102888000C3123B12846984700EAE07038BD6FF054
:102898005700F9E76FF01200F8E700BFD8620008A8
:1028A80008B5036993F84C2032B90548452102F070
:1028B8003AFF6FF0040008BD1B6A00200B60FAE7BE
:1028C800C87E00080B4642680169D26881F84E301C
:1028D80023B9136823F44013136070470268452135
:1028E800014802F020BF00BFEB7E0008F7B50446A0
:1028F800436806690F461C480022DD6859688368EA
:102908000192DB6843B96FF004044521174802F0CF
:102918000AFF204603B0F0BD01AA98470028F2DB61
:10292800376206F110074FF0FF324FF0FF33384699
:1029380001F02CF92B68204623F001032B6096F850
:102948004E10FFF7BFFF2046019900F0FBF896F8FC
:102958004D3004461BB12B6843F001032B60384609
:1029680001F096F8D5E700BFD8620008047F000898
:1029780070B50446466805694FF0FF3200212846C5
:1029880003F05CFB336820469847002385F84C30F9
:1029980085F84E30012205F11000114603F04EFB78
:1029A800214803F01DFB38B96FF0120445211F4878
:1029B80002F0B9FE204670BD204600F045F83369A4
:1029C8001B4A934222D016D81A4A934220D01A4A58
:1029D80093421FD04521194802F0A5FE0021204648
:1029E80041F01001FFF782FF041E17DA4521144851
:1029F80002F099FEDEE7134A93420DD002F5C312A6
:102A080002F520629342E5D10A21E8E70621E6E7CC
:102A18000221E4E70421E2E70821E0E7012300249A
:102A280085F84C30C6E700BFD8620008377F000839
:102A380040420F00A0860100801A06005B7F000854
:102A48007B7F000840E1330037B5456801AA0021C3
:102A5800686903F027F9041E07DB019B0022197936
:102A6800186800F01FF9041E07DA224645210B48B2
:102A780002F059FE204603B030BD094869688368F2
:102A88001B6833B9452107486FF0040402F04BFE78
:102A9800F0E7984704460028ECD0F3E7B47F000835
:102AA800D8620008D77F000830B504694068C0685C
:102AB8004568ED0107D543684A6823F47F0343EA74
:102AC8000243436030BD246A1D4D14F0010F446871
:102AD8002AD044F40064446044682C402343436093
:102AE8000B7A9C0728D43AB313785B0724D443683D
:102AF80043F0807343604368039A23F00073436094
:102B0800436823F480631343436043684A6823F4AB
:102B18007F0343EA02434360036843F00103036011
:102B2800436843F40053CCE724F4006444604468E9
:102B38002C4044EA4303D2E7436823F08073D9E783
:102B480000FCFFFF2DE9F84FD0F804800D46D0F8BF
:102B580010900026D8F80C4049484A4AD8F81C106A
:102B6800B1420ED8D9F82030C3F34203012B48D024
:102B7800022B75D04521444802F0D5FD6FF01500B1
:102B880027E00C27D8F818B0404B77430BEB070A1F
:102B9800DAF80410994226D01DD83D4B994225D029
:102BA8003C4B994225D0452102F0BDFD4FF0000C69
:102BB8003348344AD9F82010C1F34201B1EB5C0F15
:102BC8001DD15BF80710A94219D1DAF808300020A6
:102BD8002361BDE8F88F304B99420DD09142E2D184
:102BE8004FF00A0CE6E74FF0060CE3E74FF0020C53
:102BF800E0E74FF0040CDDE74FF0080CDAE70136A8
:102C0800ACE741F25C264FF47A6C40F2E2474FF4AD
:102C1800FA7E0220214B421EB5FBF2F2B3FBF2F220
:102C2800BCFBF2F10139FF2923D8B6FBF2F808F111
:102C3800FF38B8F1FF0F1CD8BEFBF2F9B9F10F0F3E
:102C480017D8B7FBF2F2013A0F2A12D8023848EA2D
:102C5800094343EA007343EA025343EA0123B6E710
:102C680040F214564FF4167C4FF4FA7740F2771E70
:102C7800CFE701301128CED1452109487CE700BFB4
:102C88005B7F0008404B4C000C80000840420F005E
:102C9800A0860100801A060040E1330000CA9A3B72
:102CA8008C8000082DE9F047044600EBC10600259A
:102CB800244FB44201D1002014E02068C30600F07C
:102CC8001F0811D4656845F02005C0F3481AC0F301
:102CD8004420102832D857F82090B9F1000F1CD1A1
:102CE8006FF01200BDE8F087B8F1100F13D0B8F1FB
:102CF800110F01D16568E8E7B8F1000FE5D1124975
:102D080040F215131148124A02F0FFFC40F2151167
:102D18000F4802F0F1FC3025D7E7484603F060F988
:102D28000028DDD043462A460AF00F01484602F043
:102D3800ECFD002804F10804BBDAD3E76FF01500B6
:102D4800D0E700BF906C0008F7800008807000088A
:102D5800C4800008012912D0022907D089B9006867
:102D6800094BC01A18BF0120000370470068064BC2
:102D7800984214BF4FF440504FF400507047002061
:102D880070474FF400507047000C005870B51D464E
:102D98000026094B6C0833F812203346FDF778FA01
:102DA8002A460902334641EA10610002201841F11F
:102DB8000001FDF76DFA70BD9C6D00082DE9F34127
:102DC8000269064643680C4610681D68D96883681E
:102DD800DB6833B94521404802F0A5FC02B0BDE8E4
:102DE800F08101AA98470028F4DB3C4B9D4258D15A
:102DF800019F0025DFF8E8802346AAB23846002163
:102E0800FFF7C4FFA0F54070404509D901350C2DE6
:102E1800F2D1234632684521324802F084FCDDE7CE
:102E28002E4EF36A23F00F032B43F3628CB92B4B1E
:102E3800DA68B2F5407F25D22B49CB232B4A2C48A0
:102E480002F063FC2B4802F060FCCB21274802F01B
:102E580053FC294B384633F8152000231946FDF753
:102E680017FA22460902630841EA10610002C018F5
:102E78004FF0000341F10001FDF70AFAC0F3130017
:102E8800F060D4E7DA681D4B9A42A7D91C49CF23D2
:102E9800164A174802F039FC1A4802F036FCCF21CE
:102EA800D4E72B6823F400432B6034B1019B03EB78
:102EB8005403B3FBF4F39BB2EB60EB680F2B8DD894
:102EC8001149E123094A0A4802F01FFC0F4802F0A1
:102ED8001CFCE121BAE700BF047F0008000C005881
:102EE800FFFC0F00208100086B8100083C8100086E
:102EF80080700008848100089C6D0008FEFF0F00A8
:102F08009B810008B8810008CF810008E48100088F
:102F18002DE9F84306460A7940680D463369012AC7
:102F280004685F6863D0931ED3F1000848EB030878
:102F38004FEA88286979FFF70DFF95F80690034650
:102F4800B9F1020F56D0B9F1040F57D0002A5FD05B
:102F5800033A012A54D94FF48050B3F5805F59D011
:102F6800B3F5405F58D0002B0CBF012303239942CF
:102F780046D1414602F0E2FE814541D1EB791BB3CF
:102F8800012B4BD1274B9C421ED0A3F54C439C42AE
:102F98001AD003F580639C4216D003F580639C42E7
:102FA80012D003F580639C420ED003F544439C4243
:102FB8000AD0A3F51C439C4206D003F580639C42CB
:102FC80002D0194B9C421BD123682946304623F076
:102FD8000103236002F069FF236843F001032360C3
:102FE80095E8030087E803000020BDE8F8834FF464
:102FF800C0689FE73AB94FF08050AEE7002AAAD0E0
:103008006FF08500F1E7033A012AF9D90020A4E717
:103018001046A2E70023AAE70223A8E7032BB1D0B2
:10302800EEE700BF00100140000C0058F7B5064657
:10303800456804696248206002F0D2FF30B9452132
:1030480060486FF0120402F06EFB0AE02068E9683D
:1030580083681B6843B96FF0570445215A4802F04A
:1030680062FB204603B0F0BD98470446E8B901AAC0
:103078000021286A02F016FE041EF2DB019B0022E2
:1030880019791868FFF70EFE041EEADB75683369C4
:103098002C685F68236823F001032360686802F0E6
:1030A8009FFF48B945214948CBE74521464802F0EA
:1030B8003AFB002CD5DBDAE7D5E901018368DB6848
:1030C80003B1984754E8003F43F00C0344E800324A
:1030D800002AF7D13946304602F0E7FE2B7D1BB1B6
:1030E800A36843F00803A3606B7D1BB1636843F4D6
:1030F80000436360AB7D1BB1636843F48033636056
:10310800EB7D1BB1636843F4003363602B7E002BB7
:1031180043D02F4B9C4226D0A3F54C439C4222D04F
:1031280003F580639C421ED003F580639C421AD04D
:1031380003F580639C4216D003F544439C4212D0A9
:10314800A3F51C439C420ED003F580639C420AD031
:10315800204B9C4207D0326845211F486FF0150468
:1031680002F0E1FA7DE773681A68936843F48043D4
:10317800936023686A7E23F0787343EA425323609E
:103188002368AA7E23F4F81343EA02432360EB7E04
:103198001BB1A36843F40043A3602B7F1BB12368D2
:1031A80043F000532360236843F001032360E3697D
:1031B8009A02FCD5E3695B02FCD5002451E700BF05
:1031C800D8620008377F0008F88100081D820008CF
:1031D80000100140000C00583D8200084FF0E02329
:1031E8000F4910B59C691A6908689B6902F4803216
:1031F8000C4934B993B903464AB90A681044C01A4D
:1032080010BD002B08BF03460AB9A342F5D90A68C6
:1032180002440A604FF0E0221269EEE70446F3E741
:1032280074050024700500240A4B1022002083F83E
:1032380023204BF68032084B1A604BF67F32074B3F
:1032480018604FF0E0235A6198611A6942F007024A
:103258001A61704700ED00E0740500247005002431
:10326800684620F007018D4619B5FFF7B7FF1149E9
:10327800114B0868D3E90042001942F10002C3E982
:1032880000020E4A00230B604BF68033D2E900415E
:10329800001BB0FBF3F043431B1941F10001C2E9E5
:1032A800003101F081FEFDF70FFCBDE819408546AD
:1032B800704700BF70050024380100243001002445
:1032C8002DE9F041DFF82C8199B1421C0BD14FF068
:1032D800E022136923F0010313614FF07F43C8F81C
:1032E8000030BDE8F081D8F80050012807DC00273D
:1032F8000BE0431CD8F80050F7D14FF4AE7040F201
:103308005D139842A8BF1846471EEFF31184102397
:1033180083F31288BFF36F8F374801F081FC68B9D7
:103328008823364A3649374802F0EFF93249364899
:1033380002F0EBF98821314802F0DEF92E4801F05D
:1033480093FC324EFFF74AFF4FF0E0239969D6E924
:10335800002380184FF0000243F10003C6E9000380
:103368002B4B1A602B4B1A68831A3BD44BF6803CC4
:103378000CFB073303F53B437F33B3FBFCF7131A0E
:1033880040F6B8320CFB0733934238BF1346224A43
:10339800934228BF13464FF0E022C8F80030013BA3
:1033A80090695361002381429361A1EB00031248A5
:1033B80038BF5B19D6E900125B1842F10002C6E972
:1033C800003201F03BFC80B940F231130B4A13493B
:1033D8000C4802F09AF90849114802F096F940F2AF
:1033E8003111A8E740F6B833D5E784F31188BFF365
:1033F8006F8F76E774050024780500248F82000813
:10340800BC82000880700008D182000838010024BE
:10341800700500243001002400E2FE00E782000865
:10342800FE82000838B5EFF31185102383F3128864
:10343800BFF36F8F1B4801F0F3FB68B988231A4A62
:103448001A491B4802F061F916491A4802F05DF959
:103458008821154802F050F9124801F005FC164B76
:103468001C68164B1B68E41AFFF7B8FE04440D48A5
:1034780001F0E4FB68B940F231130B4A10490C48DB
:1034880002F043F907490F4802F03FF940F23111C1
:10349800DFE785F31188BFF36F8F4BF68030B4FBFD
:1034A800F0F038BD780500248F820008BC8200083F
:1034B80080700008D18200083801002430010024FF
:1034C800E7820008FE82000838B5EFF31185102363
:1034D80083F31288BFF36F8F184801F0A1FB68B916
:1034E8008823174A1749184802F00FF91349174853
:1034F80002F00BF98821124802F0FEF80F4801F09B
:10350800B3FB134B1C68FFF769FE04440B4801F03A
:1035180095FB68B940F23113094A0E490A4802F08E
:10352800F4F806490C4802F0F0F840F23111E2E7ED
:1035380085F31188BFF36F8F204638BD78050024C6
:103548008F820008BC82000880700008D1820008C1
:1035580038010024E7820008FE820008002854D0C1
:103568002B4A936903F44043B3F5404F1FD1294BCD
:10357800294A0344934242D9284B294A0344934297
:103588003FD9284B984240D80020274A136823F097
:103598000F0303431360136803F00F03984232D0FC
:1035A800136803F00F03C01A18BF0120704793690E
:1035B80003F44043B3F5004F0ED11C4A1C4B0244A0
:1035C8009A421AD91B4A02449A4218D91A4A024402
:1035D8009A4216D90133D5E7184A194B02449A4240
:1035E80009D9184A02449A4207D9174A02449A420A
:1035F80005D9164AEBE70420C7E70320C5E70220F0
:10360800C3E70120C1E70346CDE70120704700BFAB
:1036180000480258FFC4A7F7FFE0F5057FE2D3FB97
:103628007F1D2C04801D2C0400200052BF4C2AF65C
:10363800BF3B47037F8871F93FC4B8FCFF6A45F573
:103648003FA5AE023F10F4F77FB5A2FABF5A51FD6D
:1036580008B50A4A0A4B93420ED90A4919230A4A5D
:103668000A4802F052F80A4802F04FF819210648B1
:1036780002F042F82033EEE7FCD308BDF8640008F6
:10368800D862000836830008138300088070000899
:103698004E83000810B504464521034802F043F85C
:1036A800204602F0A8FC00BF6D830008F7B5044669
:1036B8000D46EFF31187102383F31288BFF36F8F42
:1036C800214A04284FF04501966898BF1F4B127C89
:1036D80094BF53F820301E4B009202461D4802F05A
:1036E80022F83DB1EB69C3F308031BB145211A4821
:1036F80002F019F836B1304602F0B2FC034608B1C0
:10370800027802B9154B45211548324602F00BF8EC
:1037180029462046FFF7BEFF4DB1EB69C3F3080306
:103728002BB187F31188BFF36F8F03B0F0BD012C65
:10373800F7D087F31188BFF36F8F304603B0BDE829
:10374800F040FDF761BC00BF7C050024706D0008E7
:103758008183000897830008C48300088F830008CA
:10376800EA83000838B50A4B53F82040013053F873
:103778002050A54200D838BD606830B1037FDB0710
:1037880001D402F040FC0834F3E723689847FAE7CD
:10379800846D0008384B0122032070B5374C86B081
:1037A800374D1A70FFF7DEFF01F0A4FC0420FFF785
:1037B800D9FFAC42264628D932494223324A3348F7
:1037C80001F0A3FF324801F0A0FF42212E4801F08A
:1037D80093FF54F80C3C059354F8103C049354F8A8
:1037E800143C039354F8183C029354F81C3C01937E
:1037F80054F8203C009354E90A2354E90C0100F0E2
:103808004FFA54F8303C5E65D3E7AE4204F1300419
:10381800DFD31A4C00F000FE1E4EAC421FD91949E6
:103828006623194A194801F070FF194801F06DFF25
:103838006621CBE7D4E90A23B3F1FF3F08BFB2F111
:10384800FF3F05D052EA0301206803D100F0EAFEE9
:103858003034E2E73146183001F064FAF8E7E9D38A
:1038680000F048FEFEF7C4F90B4A137B23F001036E
:10387800137306B070BD00BFB9050024A86900081D
:10388800A869000872840008518400088070000844
:103898004E830008CD600008E0010024064800219E
:1038A800064A08B5121A02F0C5FB0548054A002168
:1038B800121A02F0BFFB08BD90000024BC050024CA
:1038C800000000200000002070B5A023164E86B02E
:1038D800012203FB0066154B154D044605930F2383
:1038E8001449CDE9033200234FF4A072CDE9013326
:1038F800142303FB00554FF4C0700F4B00FB041159
:103908003046009500F0CCF9737B0C4A23F0040391
:10391800EE602C7473734FF4046304FB0333134495
:103928006B6006B070BD00BF400100249F84000892
:103938007C05002440120024113A0008000A0024E3
:10394800BFB50020FFF70EFF274B83F30888274DEC
:103958000024F023264F85F82230EC772C766C76FD
:10396800AC7685F820406B6A43F4E0236B62FDF780
:103978001BFBFDF75DFC4FF0FF33AB62EB62FDF71D
:1039880063FD1C4DFDF778FC1B4800F051FAFFF76A
:103998005FFEFDF713F80120FFF7E4FE0220FFF7B2
:1039A800E1FE00F037FE154B15494FF480625D616A
:1039B8002846144B009405930123CDE90144CDE931
:1039C80003433B4600F06CF96A7B0646284622F022
:1039D80004026A7300F0A6FB2046FFF775FF3A461B
:1039E80031462846FDF704FC4012002400ED00E0B3
:1039F8009D370008E0010024800200247C05002493
:103A0800C0130024A484000808B50D4B9B6893F9E3
:103A18000E30002B09DB1024EFF3118384F3128896
:103A2800BFF36F8F01F0A2FEF6E706491C23064894
:103A3800064A01F06AFE1C21044801F05DFE00BF41
:103A48007C050024CD84000880700008AC84000840
:103A580008B583684BB90B4999230B480B4A01F009
:103A680054FE9921094801F047FED0E9003213605D
:103A78005A600023427B836022F00202C0E90033CF
:103A8800427308BD2085000880700008F58400088E
:103A980070B50446EFF31186102585F31288BFF33D
:103AA8006F8F304801F0BCF860B988232E4A2F493F
:103AB8002F4801F02AFE2B492E4801F026FE8821C6
:103AC800294818E0274801F0CFF8EFF3118385F370
:103AD8001288BFF36F8F83F31188BFF36F8F63B9B9
:103AE8002549B023254A224801F00FFE244801F059
:103AF8000CFEB021214801F0FFFD2568AC4213D02F
:103B080095B12846FFF7A4FF05F1180001F0EEF97A
:103B180000232846C5F8983000F004FB31461148C8
:103B2800BDE8704000F01EBCD4E902320D489A424C
:103B380018BF0133A36001F081F868B940F231136E
:103B4800094A10490A4801F0E0FD06490E4801F00B
:103B5800DCFD40F23111B3E786F31188BFF36F8FB4
:103B680070BD00BF9C0500248F820008BC8200083D
:103B780080700008D182000837850008F5840008A5
:103B88004F850008E7820008FE820008F7B5044662
:103B980016461D46EFF305837BB152EA05030CD0A8
:103BA8002D4988232D4A2E4801F0AFFD2D4801F0FC
:103BB800ACFD8821294801F09FFDEFF31187102300
:103BC80083F31288BFF36F8F274801F029F860B993
:103BD8008823264A2649224801F097FD224925488C
:103BE80001F093FD88212148E5E71F4801F03CF8E2
:103BF800A368D3B1013B1C48A36001F01FF868B962
:103C080040F23113194A1C49154801F07EFD164946
:103C18001A4801F07AFD40F23111E4E787F3118880
:103C2800BFF36F8F002003B0F0BD56EA05030BD138
:103C38000D4801F003F80028E2D087F31188BFF39C
:103C48006F8F6FF00F00EEE7224639460648CDE940
:103C5800006500F001FBE6E7728500085285000860
:103C6800807000084F8500089C0500248F8200089A
:103C7800BC820008D1820008E7820008FE820008A2
:103C880010B5044608B9054B9C681F2204F1600072
:103C980002F049FA002084F87F0010BD7C0500245A
:103CA8002DE9FF470F9D04460E4698460F2D119F9C
:103CB80052D1364B984553D1073204F15803109925
:103CC80006F1400A22F00702A573217304217F320E
:103CD800617322F03F02C4E916333F2A4FF0000314
:103CE800A2F14009A360E373C4E9063305D883F35E
:103CF8001188BFF36F8F084602DFB51820462946A2
:103D0800FCF7C2FE07300E9B314620F00700002664
:103D1800C4F888002D1A20462A46C4E920A902932F
:103D28000D9B01930C9B00934346FDF731FA6665A2
:103D38004FB31F22394604F1600002F0F4F984F809
:103D48007F60134B9B680BB1D3F88C302846C4F8BE
:103D58008C3004B0BDE8F08705F110031E2BABD9F9
:103D680040F205230B4A0C490C4801F0CEFC2946C9
:103D78000B486FF00F030E2201F0C7FC40F205213B
:103D8800044801F0B9FC84F86070DAE7113A0008D9
:103D98007C050024C0850008E385000880700008C1
:103DA80063860008F0B587B00446DDE91276EFF3C4
:103DB800058575B1194940F29223194A194801F04D
:103DC800A4FC194801F0A1FC40F29221144801F02A
:103DD80093FC0595109D04950F9D03950E9D0295E6
:103DE8000D9D01950C9D0095FFF75AFFB6F1FF3F19
:103DF80008BFB7F1FF3F05D056EA070305D12046B3
:103E080000F010FC204607B0F0BD3A46334604F1F6
:103E18001800064900F086FFF4E700BF9486000802
:103E2800C085000880700008A6860008CD600008DC
:103E380040F2011383810023C0E92033C0F88C309D
:103E4800014B9860704700BF7C0500240A4A6FF058
:103E58000A019368C3F898100849C3F894004B689E
:103E680043F080534B60002383F31188BFF36F8FB7
:103E78009368D3F8980070477C05002400ED00E0B3
:103E880038B590F90D200146437B002A11DA03F07A
:103E98007F0343731B4B984209D11B4956231B4888
:103EA8001B4A01F032FC5621194801F025FC02F0AA
:103EB800D9F8184D2A46AB6852F8184F944200D0EA
:103EC80004B9EC688B4214D05BB91349D523134A63
:103ED8000E4801F01AFC124801F017FCD5210F48D2
:103EE800E3E75A7BD20604D1DA897F2A01D9A2698D
:103EF8002AB1A34202D0204600F006FE23466B6199
:103F080038BD00BF40010024ED860008807000081D
:103F1800CB8600087C0500243A8700080E87000835
:103F28004F85000808B583684BB9094999230948A2
:103F3800094A01F0EAFB9921074801F0DDFB02F08C
:103F480091F8437B23F0020343730023836008BD89
:103F58002085000880700008F584000870B590F985
:103F68000D20437B002A50DBD9064ED163F07F0336
:103F78004373274B984209D126494F232648274A9D
:103F880001F0C3FB4F21254801F0B6FB244C224623
:103F9800E16952F8183F934207D1C0E9002108604F
:103FA800E06111E09942F8D01B68002BF5D090F938
:103FB8000E5093F90E60B542F4D0AE42F2DD596866
:103FC800C0E9003108605860A569954200D005B97C
:103FD800E568A3685BB91349D523134A0E4801F075
:103FE80094FB124801F091FBD5210F48CCE75A7B8E
:103FF800D20604D1DA897F2A01D9AA6932B1AB4243
:1040080002D0284600F080FD656170BD6361FCE761
:1040180040010024ED86000880700008CB86000867
:104028007C0500243A8700080E8700084F850008A1
:1040380070B590F90D200146437B002A314C10DA07
:1040480003F07F03A042437309D12F4956232F4A17
:104058002F4801F05AFB56212C4801F04DFB02F085
:1040680001F84B7BA14263F07F034B7307D12649CC
:104078004F23264A264801F048FB4F21ECE7254C00
:104088002246E06952F8183F934207D1C1E900205F
:104098000160E16111E09842F8D01B68002BF5D06F
:1040A80091F90E5093F90E60B542F4D0AE42F2DDAC
:1040B8005868C1E9003001605960A569A368954254
:1040C80000D005B9E5688B4214D05BB91249D523F5
:1040D800124A0F4801F019FB114801F016FBD521CF
:1040E8000E48BAE75A7BD20604D1DA897F2A01D969
:1040F800AA692AB1AB4202D0284600F005FD2B463A
:10410800636170BD40010024ED860008CB8600087D
:10411800807000087C0500243A8700080E87000894
:104128004F85000838B50446EFF31185102383F353
:104138001288BFF36F8F174800F072FD68B98823A3
:10414800154A1649164801F0E0FA1249154801F0D7
:10415800DCFA8821104801F0CFFA0E4800F084FDFF
:104168002046FFF7FBFE0B4800F068FD68B940F2F7
:104178003113094A0C490A4801F0C7FA05490B48A6
:1041880001F0C3FA40F23111E4E785F31188BFF377
:104198006F8F38BDA00500248F820008BC820008FC
:1041A80080700008D1820008E7820008FE820008BB
:1041B80038B50446EFF31185102383F31288BFF353
:1041C8006F8F1E4800F02CFD68B988231C4A1D49D2
:1041D8001D4801F09AFA19491C4801F096FA8821FD
:1041E800174801F089FA154800F03EFD637B13F08B
:1041F800280F0BD1A36813B12046FFF793FE637B0A
:10420800204623F004036373FFF7A8FE0B4800F071
:1042180015FD68B940F23113094A0D490A4801F001
:1042280074FA06490B4801F070FA40F23111D7E7E9
:1042380085F31188BFF36F8F38BD00BFA005002438
:104248008F820008BC82000880700008D1820008B4
:10425800E7820008FE8200082DE9F047DFF8D4A0C5
:104268001746354D0446DAF808200E46334BA84267
:10427800DDE908981A600BD1314940F272233148C0
:10428800314A01F042FA40F272212F4801F034FA23
:10429800EFF31183102383F31288BFF36F8F28463F
:1042A80000F0BEFC60B98823284A2949254801F056
:1042B8002CFA2946274801F028FA88212348E5E7FF
:1042C800284600F0D1FCDAF808503946284601F0B3
:1042D800D1FEB8F1FF3F08BFB9F1FF3F06D04A460B
:1042E80043461D4905F1180000F01CFD204600F06A
:1042F800A5FC68B9194940F26B13144A114801F03A
:1043080004FA2146164801F000FA40F26B11D5E78D
:10431800094800F093FC40B9104940F26B130B4A6E
:10432800084801F0F2F90449ECE73046BDE8F047E7
:10433800FFF78CBD7C050024A0050024A4050024FB
:104348006187000880700008CB8600088F8200080B
:10435800BC820008D1820008CD600008E78200080E
:10436800FE82000870B504460D46F9B9EFF30586DC
:10437800E6B91A4B5A699B689A4217D000F05EFC5E
:1043880078B940F26B13164A1649174801F0BDF97F
:104398002146164801F0B9F940F26B11104801F0B6
:1043A800ABF93046BDE87040FFF750BD204600F03D
:1043B80045FC68B940F23113094A0A490A4801F034
:1043C800A4F92146094801F0A0F940F23111E5E7C6
:1043D80085F31188BFF36F8F70BD00BF7C05002483
:1043E8008F820008E782000880700008FE820008BB
:1043F800034648B9EFF3058232B9064A5169926813
:10440800914201D0FFF722BD83F31188BFF36F8F6C
:10441800704700BF7C05002410B5EFF3118410230A
:1044280083F31288BFF36F8F264800F0F9FB60B959
:104438008823254A2549264801F067F92149254856
:1044480001F063F98821204810E01E4800F00CFCB8
:10445800EFF3058363B120498F23204A1C4801F0FC
:1044680054F91F4801F051F98F211C4801F044F913
:104478001C4B9A68D37B012B0AD11B499023174AFE
:10448800134801F042F9164801F03FF99021ECE792
:10449800013BD3730B4800F0D1FB68B940F23113EC
:1044A800094A12490A4801F030F90649104801F052
:1044B8002CF940F23111C6E784F31188BFF36F8FEE
:1044C80010BD00BFA00500248F820008BC82000830
:1044D80080700008D182000894860008F5840008DE
:1044E8004F8500087C0500249A870008E7820008A9
:1044F800FE82000870B5EFF31186102383F312884B
:10450800BFF36F8F374800F08BFB60B98823364ABA
:104518003649374801F0F9F83249364801F0F5F8DC
:104528008821314813E0344D2E4800F09DFBAB68DC
:10453800DA7B72B9314940F20D33314A2C4801F027
:10454800E4F8304801F0E1F840F20D312C4801F070
:10455800D3F8EFF3058161B12B4940F20E33284AB5
:10456800234801F0D2F8274801F0CFF840F20E3185
:10457800ECE70132DA732A4652F8184F944200D019
:1045880004B9EC685A7BD20604D1DA897F2A01D9AA
:10459800A2692AB1A34202D0204600F0B5FA234608
:1045A80010486B6100F04AFB68B940F231130E4ABB
:1045B80016490F4801F0A9F80A49154801F0A5F86D
:1045C80040F23111ADE786F31188BFF36F8FEFF337
:1045D8001180102383F31288BFF36F8FBDE87040FA
:1045E800FFF706BFA00500248F820008BC820008E0
:1045F80080700008D18200087C050024CB87000861
:10460800CB8600084F85000894860008E7820008DA
:10461800FE820008024B03F11802C3E90622704724
:104628007C05002438B50446EFF31185102383F385
:104638001288BFF36F8F204800F0F2FA68B9882318
:104648001E4A1F491F4801F060F81B491E4801F027
:104658005CF88821194801F04FF8174800F004FB6E
:10466800637B5B0710D504F1180000F03FFC637B07
:10467800204623F004036373FFF770FC29460E48B5
:10468800BDE83840FFF76EBE0B4800F0D7FA68B9AE
:1046980040F23113094A0D490A4801F036F8064933
:1046A8000B4801F032F840F23111D3E785F3118855
:1046B800BFF36F8F38BD00BFA00500248F820008AC
:1046C800BC82000880700008D1820008E7820008D8
:1046D800FE820008014B9868704700BF7C050024E3
:1046E8002DE9F8430446077BEFF31185102383F384
:1046F8001288BFF36F8F7B4800F092FA68B988235D
:10470800794A7A497A4801F000F87649794800F000
:10471800FCFF8821744800F0EFFF724800F0A4FA0B
:10472800637B190717D56F4800F088FA68B940F21B
:1047380031136D4A70496E4800F0E7FF69496F48C8
:1047480000F0E3FF40F23111E4E785F31188BFF38D
:104758006F8FBDE8F883D90943F008027FD16273EF
:10476800A36813B12046FFF7DDFB04F1180004F13C
:10477800580800F0BBFBA66DB04511D04FF00009FA
:1047880076B13046FFF7CEFB06F1180000F0AEFB1D
:104798003046C6F89890FFF7E1FBA66DB045EFD11B
:1047A800DFF85C81D8F808309C426DD1EFF30589B9
:1047B800B9F1000918BF4FF00109D8F81860514A3B
:1047C800964200D00EB9D8F80C60B34202D03046F9
:1047D80000F09AF9C8F81460B9F1000F02D04A48FD
:1047E800FFF726FBD8F808309C4260D1EFF3058626
:1047F800002E5CD1237BDA071FD53A4800F01EFA59
:10480800002894D085F31188BFF36F8F86F3118841
:10481800BFF36F8F0423184602DFEFF311851023CF
:1048280083F31288BFF36F8F2E4800F0F9F9002840
:104838003FF465AF2B4800F017FA2A4800F0FEF95C
:1048480028BB40F26B13284A2B49294800F05DFF2A
:1048580024492A4800F059FF40F26B115AE703F047
:104868007F0343F008036373284B9C4208D128490F
:104878005623284A1E4800F048FF562125484AE793
:10488800204601F0EFFB6BE74FF0000995E728465B
:10489800FFF7DCFA20494FF4DD731E4A144800F094
:1048A80034FF1E4800F031FF4FF4DD71E6E70D4894
:1048B80000F0C4F900283FF43AAF85F31188BFF33C
:1048C8006F8FFB077FF545AF40F23D53114A1449FE
:1048D800074800F01AFF2146124800F016FF40F280
:1048E8003D51CBE7A00500248F820008BC82000858
:1048F80080700008D1820008E7820008FE82000864
:104908007C05002494050024800200244001002432
:10491800ED860008CB860008FC8700080788000899
:1049280029880008348800082DE9F0410446164615
:104938001D46EFF31187102383F31288BFF36F8F9F
:104948003F4800F06DF960B988233E4A3E493F4828
:1049580000F0DBFE3A493E4800F0D7FE882139488E
:1049680023E0374800F080F9637B1B0748D455EAF9
:10497800060358D0DFF8DC80D8F80800A04255D0EC
:1049880000F15803A2689A4250D0EFF3058373B13F
:10499800314940F25F53314A2C4800F0B6FE3048A6
:1049A80000F0B3FE40F25F512C4800F0A5FE04F180
:1049B800580101F05FFBB5F1FF3F08BFB6F1FF3FBB
:1049C80007D0D8F8080032462B462649183000F0A0
:1049D800A9F91B4800F032F968B940F26B13194A7B
:1049E80021491A4800F091FE1549204800F08DFE33
:1049F80040F26B11B3E73846BDE8F041FFF726BA3D
:104A080000240F4800F01AF998B940F231130D4A02
:104A180015490E4800F079FE0949144800F075FE62
:104A280040F231119BE76FF00F04EAE76FF02C04B6
:104A3800E7E787F31188BFF36F8F2046BDE8F08161
:104A4800A00500248F820008BC820008807000083E
:104A5800D18200087C05002494860008CB860008D3
:104A680052880008CD600008E7820008FE8200082E
:104A780008B568B10F4B98420AD303F11802904267
:104A880006D2C01A1822B0FBF2F302FB13034BB193
:104A98000949382309480A4A00F037FE38210848EE
:104AA80000F02AFE074BC01001225843064B1A5447
:104AB80008BD00BF200300248F880008807000080C
:104AC80067880008ABAAAAAABA050024C3897F2B65
:104AD80012D80A4B1B6863B1094B90F90E201B686A
:104AE8009A4209DB437BDB0606D1064BC31A18BF83
:104AF800012303F0010070470023FAE73C0000247B
:104B0800A8050024400100240E4B70B51E7C054604
:104B18000D4C06EB460304EBC304204600F0E6F90F
:104B28000A4B002228469A55FFF7D0FF48B1084B98
:104B3800204608491A68013ABDE87040D31700F0CA
:104B4800F1B870BD7C05002420030024BA050024B8
:104B58003C000024794A000838B5EFF3118510238A
:104B680083F31288BFF36F8F234800F059F868B9B0
:104B78008823224A2249234800F0C7FD1E492248BB
:104B880000F0C3FD88211D4800F0B6FD1A4800F06A
:104B98006BF81E4B1E4A9C681068A04213D1FFF7A1
:104BA800B3FF154800F04AF808BB40F23113134A26
:104BB8001849144800F0A9FD0F49174800F0A5FD51
:104BC80040F23111DFE700211B7C1160134AD35CEE
:104BD800002BE6D02046FFF779FF0028E1D0637B61
:104BE800DB0602D12046FFF723FA2046D7E785F3F4
:104BF8001188BFF36F8F38BDA00500248F8200088D
:104C0800BC82000880700008D18200087C0500245E
:104C1800A4050024E7820008FE820008BA050024E3
:104C2800006838B1044B00F003001B7CC01A18BFA1
:104C380001207047012070477C050024002302688A
:104C48000360EFF30581074B19B19968497BC907E0
:104C580006D4197C98680843831A5842584170470B
:104C6800012070477C050024024B1A7C9B68134383
:104C7800036070477C0500240A480B4A0B49121A46
:104C880008B501F0D9F90A480A4A0B49121A01F085
:104C9800D3F90A480A4A0B49121ABDE8084001F03C
:104CA800CBB900BF0000002490000024D08A00087F
:104CB8000000002400000024D08A00080000002022
:104CC80000000020608B0008024B1868984208BF5B
:104CD8000020704740000024034B1B680BB9FEF707
:104CE800A1BB0020704700BFAC05002430B570B1EF
:104CF8000B4B5B6898420AD0036843B1D3E904219F
:104D0800D0E90445121941EB0501C3E90421D0E9B2
:104D1800003213605A600023C0E9003330BD00BF81
:104D280040000024B3F1FF3F08BFB2F1FF3F2DE977
:104D3800F74F044690469B4615461F4600F0B8803C
:104D4800D0F80090B9F1000F0CD05B4972235B4A90
:104D58005B4800F0DAFC5B4800F0D7FC722157484A
:104D680000F0CAFC8160EFF311830193102383F3F1
:104D78001288BFF36F8F5448FFF752FF824660B91D
:104D88008823524A52494E4800F0BFFC4E495148C8
:104D980000F0BBFC88214D48E2E74B48FFF764FF71
:104DA800B8F1FF3F4C4A7BF1FF331FDBFFF794FF5D
:104DB8000135494A06464BF1000B2D18D2E9001778
:104DC8004BEBE073C4E904536D1843EB0707FFF797
:104DD8007BFFDFF808E10346DEF80490F3B9C4E985
:104DE80000E9C9F80040CEF8044029E0D2E90012F1
:104DF8006FF001034FF0000A5B1A4FF0FF3161EBCF
:104E08000202B3EB080362EB0B02012B72F1000103
:104E1800BCBF01234A46C4E90432D8E7D3E9041CDD
:104E2800D4E904208A4270EB0C0B2EDA891A5A68EE
:104E38006CEB0000C3E90410C4E9003214605C6044
:104E4800FFF742FF84420ED1254B1B685BB9BAF1CC
:104E5800000F02D1FFF740FF0646304601F036F951
:104E68000021FEF72DFA1848FFF7E8FEB0B940F226
:104E78003113164A1B49124800F047FC12491A48D8
:104E880000F043FC40F2311185E7521A60EB0C0048
:104E98009945C4E90420A2D01B689FE7019B83F3CE
:104EA8001188BFF36F8F2846394603B0BDE8F08FED
:104EB80000252F46F7E700BF648A0008408A0008EB
:104EC800807000084F850008B00500248F82000814
:104ED800BC820008D1820008380300244000002466
:104EE800AC050024E7820008FE82000870B504467D
:104EF800EFF31186102383F31288BFF36F8F2348D3
:104F0800FFF78EFE68B98823214A2249224800F01B
:104F1800FCFB1E49214800F0F8FB88211C4800F0E2
:104F2800EBFB1A48FFF7A0FE236833B3FFF7CCFE6C
:104F380005462046FFF7DAFE00224FF00043A5425F
:104F4800C4E9042306D1FFF7C7FE01F0BFF800212A
:104F5800FEF7B6F900240D48FFF770FE80B940F25D
:104F680031130B4A0E490C4800F0CFFB07490D4896
:104F780000F0CBFB40F23111D0E76FF01504EAE7FF
:104F880086F31188BFF36F8F204670BDB0050024EB
:104F98008F820008BC82000880700008D182000857
:104FA800E7820008FE8200082DE9F0470446EFF387
:104FB8001188102383F31288BFF36F8F4448FFF7DB
:104FC8002FFE68B98823434A4349444800F09DFBB3
:104FD8003F49434800F099FB88213E4800F08CFB8C
:104FE800DFF8009100263A480027FFF73DFEDFF87A
:104FF800F8A0C9F80040FFF767FE0446D9F800306A
:10500800DAE900C0D91754B1D4E90452AB4271EBC4
:10501800020E20DAED1A62EB0102C4E9045213EB26
:105028000C034FF0000440EB01012046C9F8004092
:10503800CAE9003101F04AF82146FEF741F924484F
:10504800FFF7FCFDB0B188F31188BFF36F8FBDE89F
:10505800F047FFF781BD15EB0C0340EBE570C4E9A1
:105068000467CAE900302046FFF740FE1848FFF7FA
:10507800E5FD68B940F23113164A1C49174800F09B
:1050880044FB13491A4800F040FB40F23111A4E7F1
:1050980088F31188BFF36F8FA36820469847EFF312
:1050A8001188102383F31288BFF36F8F0848FFF726
:1050B800B7FD002886D00648FFF7D6FDD9F800309E
:1050C8005B1BC9F80030FFF7FFFD044696E700BFF9
:1050D800B00500248F820008BC8200088070000898
:1050E800D1820008AC05002438030024E7820008B8
:1050F800FE820008014800F0F2BA00BF848A000866
:105108002DE9F04F8DB043680293837815469A07CE
:10511800804640F10D8100240E78002E00F00A81AF
:10512800252E0BD04B1C03930134029B414630467D
:1051380098470028C0F2F6800399EDE74E788B1C5B
:10514800252E0393F0D00027B946BB46BBF11F0FAD
:1051580038D8A6F12003102B0AD8DFE803F02A0973
:1051680009300909092109090928092D09091F0018
:10517800A6F13003092B33D92A2E37D11BF0400F63
:1051880055F8043B40F08280002BA7BF4BF0200B62
:105198009946C3F100094BF0280B01E04BF0010BD5
:1051A800039B13F8016B0393002ECFD130E04BF033
:1051B800020B4BF0040BF3E74BF0080BF0E74BF056
:1051C800100BEDE7BBF17F0F19D8A6F13003092BBF
:1051D800D2D81BF0400F03D00A2101FB0737DFE7C5
:1051E8000A2101FB09394BF0200BD9E72E2E06D1F5
:1051F8001BF0400F40F09E804BF0400BD0E76C2E28
:1052080031D02BD8682E36D06A2E3CD04C2E3AD0CE
:10521800002F46F02003B8BF2BF04002A3F1650130
:10522800BCBF1FFA82FB0027022901D9612B2FD1AD
:10523800073525F00705DFF8ACA2083507271BF06E
:10524800080F66D00AEB070B56465E4563D1A4EB00
:105258000A0A06EB0A02A9EB07096FE1742E9FD030
:105268007A2E9DD0D4E71BF0800F18BF4BF4007B3B
:105278004BF0800B94E71BF4807F18BF4BF4007B46
:105288004BF4807B8CE74BF4207B89E71F4687E74C
:10529800A6F16301122900F2F080DFE811F0130093
:1052A8004F00EE00EE00EE00EE004F00EE00EE00C4
:1052B800EE00EE00EE00FE00E900EE00EE001B003E
:1052C800EE00AF0055F8043B8DF8183001270DF1BA
:1052D800180AB4E755F804AB834BBAF1000F08BFBE
:1052E8009A461BF0400F14BF39464FF0FF31504625
:1052F80000F029FF0746A2E7029B41462020984775
:1053080000280FDB013EB742F6D34C44A41BB1463C
:1053180098E74E46F7E716F8010B029B4146984777
:10532800002892DA98F8023043F0040388F8023033
:105338004FF0FF3420460DB0BDE8F08F1BF0800F12
:1053480034D01BF4007F2CD0073525F00705AA467A
:1053580069685AF8080B2BF010050029ADB237DA46
:10536800404261EB410145F480650DF1180B0A23B9
:105378005A4600F0F4FEA0EB0B0301936B0662D5CE
:10538800019B25F001019F4289B240F3A180002EC4
:1053980000F0998015F0100240F09C80BB460D4645
:1053A80023E0AA465AF8040BC117D4E7AA461BF40F
:1053B800807F5AF8041B01D10846F5E71BF4007FEB
:1053C80015BF48B208B241F3C01141F3C031C2E77A
:1053D80050EA0103C9D11BF0400FC6D0002FC4D139
:1053E8002BF0110295B2BB46019740F2064115EA2F
:1053F80001021CBF0BF1010B00222CE02BF0100264
:105408001FFA82FB0A231BF0800C49D01BF40071A1
:105418001DBF073525F00705AA46AA461ABF5AF840
:10542800080B69685AF8040B50EA010545D12BF0BE
:1054380016051BF0400FADB242D0002F40D12BF023
:10544800170295B2019715F0100248D0019B002E63
:1054580042D103F1010B29075AD4EB0706D5D945E8
:105468006FDD0199A9EB0B035F18CB465B4649E05A
:105478004BF0100B10237826C5E7782B04D1C6F122
:10548800780343F01003BEE7029B41462520984766
:105498000028FFF647AF023447E608230026B2E7A4
:1054A800AA461BF480715AF8040BBDD01BF4007196
:1054B8001ABFC0B2614680B2B6E72BF0060295B2B9
:1054C8000DF1180B54E725F01105ADB2BB468CE77A
:1054D8000D46B8E73B460D4603F1020BBBE7DDF886
:1054E80004B082E7C68A0008BF8A0008CDE9043202
:1054F8004146029B202098470028FFF613AF049BE3
:10550800059A01339945F1DCA4EB0B01CC189B46B5
:105518000AB3029B4146302098470028FFF602AFA5
:105528008EB901342744019B391B994224DC1D465E
:105538005DBB019AA9EB0B092244554614469144D8
:1055480035E0019F92E7023441463046029B984776
:105558000028E7DAE6E640F206410D42E2D015F00F
:10556800020F14BF2B20202015F4806F04F10104D2
:10557800414618BF2D20E9E7029B41463020984755
:10558800002804F10104CEDACCE606AB013D414621
:10559800585D029B98470028CADAC3E6029B414639
:1055A80020209847002804F10104FFF6BBAEA9EBC0
:1055B8000403002BF2DCBFE57047836800EBC101F0
:1055C800B3F5004F2CBF51F8220031F81200704794
:1055D80000EBC1018068B0F5004F2CBF41F82230C4
:1055E80021F812307047012208B5FFF7E6FFD040D6
:1055F80008BD836800EBC101B3F5004F08D34B68C1
:105608001AB143F001034B60704723F00103FAE736
:105618004B881AB143F001034B80704723F0010314
:10562800FAE753000122FFF7D3BFB0F5004F01F1AD
:10563800070134BF04230823C818C00870470A4666
:105648000121013208B5FFF7F0FF121AB2FA82F011
:10565800C0F11F0008BD2DE9F04186680D460446DB
:10566800FFF7C1FFB6F5004F014601D3012832D03C
:105678003046FFF7E4FF04EB80010E6996B901227A
:10568800E3688240204613430222E3602B460D6103
:105698002946FFF79DFF032229462046BDE8F04131
:1056A800FFF796BF022231462046FFF786FF2946BC
:1056B800034607462046FFF78BFF03223346294659
:1056C8002046FFF785FF39462B462046FFF780FF27
:1056D80002223146E1E7BDE8F081002070470FB4AF
:1056E80007B504A951F8040B0191FBF7F5F803B0CD
:1056F8005DF804EB04B07047002383F31188BFF30F
:105708006F8F0423184602DF70470FB407B504A94A
:1057180051F8040B0191FBF7DFF803B05DF804EBD7
:1057280004B0704770470FB407B504A951F8040BCB
:105738000191FBF7D1F803B05DF804EB04B07047B2
:1057480001460068FBF764B908B5FBF799F9BDE8AD
:105758000840FBF7B9B900210120FBF759B961B638
:1057680062B680F31188BFF36F8F704772B600235B
:1057780083F31188BFF36F8FBFF34F8F30BF62B6CB
:10578800BFF36F8F7047202809D9B0F1004F08D8B0
:105798000138B0FA80F0C0F11F00400070470820BF
:1057A80070473E20704708B5FBF74EFF002008BD44
:1057B80008B50021012308461A46FCF711FABDE88E
:1057C8000840FCF7B5B94B6903B118470120704789
:1057D80001207047FCF764B9704701208840704782
:1057E8004FF0B042D2F8803023EA0003C2F880308C
:1057F80070470A2809D840F23A73C34013F0010FE2
:1058080014BF00206FF0850070476FF08500704767
:10581800436800205B681B690B6070474368002081
:105828005B68996170474368090400205B68996167
:10583800704712F4003CF8B505460C4613461DD0D7
:10584800960714D550075DD55022D90611D542F4D4
:10585800007203F4C061B1F5806F42D0B1F5C06F3A
:1058680019D0B1F5007F18D142F0800215E010225E
:10587800EBE79F06EDD542F48062EAE7D60305D54B
:10588800D00605D4C2F340129202E2E73022E0E7E4
:105898004FF40072DDE742F4C07213F440372E690A
:1058A80008D0306920FA04F1C9075FBF0121A1407F
:1058B80001433161BCF1000F06D0180314D56968A3
:1058C80001234968A3408B61002321466868FCF7DF
:1058D8003FFF27B9336923FA04F2D2070CD400201A
:1058E800F8BD42F48072D8E75903EDD50121284666
:1058F800A140FFF798FFE7E70122A24023EA02034D
:105908003361ECE76FF08500EAE7F8B51F46044617
:1059180040680E461546FCF71BFF112F07D10121E1
:105928002B0501FA06F104D563685B6899610020CC
:10593800F8BD2046FFF777FFF9E700221F20114640
:1059480008B5FBF7C9FB1F20FBF7B8FB0022202096
:105958001146FBF7C1FB2020BDE80840FBF7AEBBB2
:105968002DE9F74398460B7A1546066943F0040378
:1059780007460C4601220B720B46AA420AD906F1C9
:1059880010094FF0FF324FF0FF3348460026FEF76C
:10599800FDF820E00AD2197A187D81EA000C1CF083
:1059A800010F01D040071FD589071DD401320C33E0
:1059B800D2B2E2E7012D384614BF04F114030023E4
:1059C800CDE9003894E80E0000F0C4F8061E04DBA8
:1059D800013D0C34EDB2002DECD14846FEF758F8E5
:1059E800304603B0BDE8F0836FF01506F8E700F025
:1059F8004CB800F090B843680169DB681A6822F077
:105A080002021A601A6822F004021A601A6822F068
:105A180020021A601A6822F010021A601A6822F02E
:105A280040021A6091F84D201AB91A6822F08002D3
:105A38001A607047C3681A6842F020021A601A6830
:105A480042F010021A601A6842F040021A601A689E
:105A580042F080021A60704738B543680569DC680F
:105A6800FFF7C9FF6368DB0103D5636823F0807320
:105A7800636095F84D301BB9236823F00103236058
:105A88002846BDE83840FEF703B810B504694368F6
:105A9800626CDB688AB19A69920702D5A26C1278A7
:105AA8009A629A69510702D5A26C596A1170A26C60
:105AB8000132A264626C013A62649A69D20613D414
:105AC8009A6991061BD49A69520602D49A691106FA
:105AD80014D5226C127A92070CD4FFF78CFF20465B
:105AE800BDE81040FDF7D4BFDA6942F01002DA6170
:105AF8000122A2635A6842F480425A6010BDDA69F2
:105B080042F02002DA615A6822F080725A60BDE8D9
:105B18001040FFF7A1BF08B543680169DA689369C7
:105B28009B050AD5D36943F40073D36101234B6302
:105B3800FFF792FF6FF0040008BD936913F48073B8
:105B480006D0D36943F48073D3610123CB63EFE7B5
:105B58001846F1E72DE9F04F89B00546164603AF20
:105B6800BDF84CA087E80E009DF8149029F00603B4
:105B78008DF81F30049B6968FF2B2C69D1F80C80C5
:105B88008BBFFF234B460DF11F02129A84BF04936B
:105B98009DF81430049888BF03F0FD0303998DF82D
:105BA800143013F00103C4E9110133D14FF0010B94
:105BB800284627643946C4F830B0C4E90E33009348
:105BC8005346FCF771FF6868FFF734FFD8F80030D8
:105BD80043F00203C8F8003041F28832002320461F
:105BE800FDF7D4FF50B12846FFF736FF4FF0FF32DC
:105BF8004FF0FF332046FDF7C9FF5846E36BD4E961
:105C08000D2100293AD1A3BB8ABB00283DD06FF0F3
:105C1800040044E00023284627643946C4E90C33CD
:105C2800C4E90E334FF4806300935346FCF73CFFFE
:105C38006868FFF7FFFED8F8003043F00403C8F89F
:105C4800003041F2883200232046FDF79FFF50B113
:105C58002846FFF701FF4FF0FF324FF0FF33204691
:105C6800FDF794FF0120E36BD4E90D21C9E76363D5
:105C7800CDE702B161630023E363C8E7002102B105
:105C88006163A163002BF6D1C1E7049A039BB61A9E
:105C98001344CDE90336002E7FF46CAF304609B0CB
:105CA800BDE8F08F30B5036813600579046804EB2C
:105CB800C504A34202D36FF0010030BD5C798C4269
:105CC80001D00833F0E70020F7E74368C1F34B1031
:105CD80001F01F011B68C05801238B4003424FF09D
:105CE800000014BF012300231370704710B54368E8
